{
	"data": {
		"bytecode": {
			"linkReferences": {},
			"object": "608060405234801561001057600080fd5b50610a23806100206000396000f3fe6080604052600436106100345760003560e01c80638bca2b2f14610039578063b69ef8a814610064578063bcb71cf21461008f575b600080fd5b34801561004557600080fd5b5061004e6100ab565b60405161005b9190610774565b60405180910390f35b34801561007057600080fd5b506100796100f8565b6040516100869190610774565b60405180910390f35b6100a960048036038101906100a4919061059b565b610100565b005b6000600160144244336040516020016100c6939291906106b7565b6040516020818303038152906040528051906020012060001c6100e99190610891565b6100f391906107a0565b905090565b600047905090565b60018310158015610112575060148311155b610151576040517f08c379a000000000000000000000000000000000000000000000000000000000815260040161014890610714565b60405180910390fd5b60018210158015610163575060148211155b6101a2576040517f08c379a0000000000000000000000000000000000000000000000000000000008152600401610199906106f4565b60405180910390fd5b600181101580156101b4575060148111155b6101f3576040517f08c379a00000000000000000000000000000000000000000000000000000000081526004016101ea90610754565b60405180910390fd5b6706f05b59d3b2000034101561023e576040517f08c379a000000000000000000000000000000000000000000000000000000000815260040161023590610734565b60405180910390fd5b6102466100ab565b8314156102a9573273ffffffffffffffffffffffffffffffffffffffff166108fc6103e86102726100f8565b61027c91906107f6565b9081150290604051600060405180830381858888f193505050501580156102a7573d6000803e3d6000fd5b505b6102b16100ab565b821415610314573273ffffffffffffffffffffffffffffffffffffffff166108fc6103e86102dd6100f8565b6102e791906107f6565b9081150290604051600060405180830381858888f19350505050158015610312573d6000803e3d6000fd5b505b61031c6100ab565b81141561037f573273ffffffffffffffffffffffffffffffffffffffff166108fc6103e86103486100f8565b61035291906107f6565b9081150290604051600060405180830381858888f1935050505015801561037d573d6000803e3d6000fd5b505b6103876100ab565b8314801561039b57506103986100ab565b82145b156103fb573273ffffffffffffffffffffffffffffffffffffffff166108fc60646103c46100f8565b6103ce91906107f6565b9081150290604051600060405180830381858888f193505050501580156103f9573d6000803e3d6000fd5b505b6104036100ab565b8314801561041757506104146100ab565b81145b15610477573273ffffffffffffffffffffffffffffffffffffffff166108fc60646104406100f8565b61044a91906107f6565b9081150290604051600060405180830381858888f19350505050158015610475573d6000803e3d6000fd5b505b61047f6100ab565b8214801561049357506104906100ab565b81145b156104f3573273ffffffffffffffffffffffffffffffffffffffff166108fc60646104bc6100f8565b6104c691906107f6565b9081150290604051600060405180830381858888f193505050501580156104f1573d6000803e3d6000fd5b505b6104fb6100ab565b8314801561050f575061050c6100ab565b82145b8015610521575061051e6100ab565b81145b15610581573273ffffffffffffffffffffffffffffffffffffffff166108fc600261054a6100f8565b61055491906107f6565b9081150290604051600060405180830381858888f1935050505015801561057f573d6000803e3d6000fd5b505b505050565b600081359050610595816109d6565b92915050565b6000806000606084860312156105b4576105b3610920565b5b60006105c286828701610586565b93505060206105d386828701610586565b92505060406105e486828701610586565b9150509250925092565b6105ff6105fa82610827565b610863565b82525050565b600061061260108361078f565b915061061d82610932565b602082019050919050565b600061063560108361078f565b91506106408261095b565b602082019050919050565b600061065860168361078f565b915061066382610984565b602082019050919050565b600061067b60108361078f565b9150610686826109ad565b602082019050919050565b61069a81610859565b82525050565b6106b16106ac82610859565b610887565b82525050565b60006106c382866106a0565b6020820191506106d382856106a0565b6020820191506106e382846105ee565b601482019150819050949350505050565b6000602082019050818103600083015261070d81610605565b9050919050565b6000602082019050818103600083015261072d81610628565b9050919050565b6000602082019050818103600083015261074d8161064b565b9050919050565b6000602082019050818103600083015261076d8161066e565b9050919050565b60006020820190506107896000830184610691565b92915050565b600082825260208201905092915050565b60006107ab82610859565b91506107b683610859565b9250827fffffffffffffffffffffffffffffffffffffffffffffffffffffffffffffffff038211156107eb576107ea6108c2565b5b828201905092915050565b600061080182610859565b915061080c83610859565b92508261081c5761081b6108f1565b5b828204905092915050565b600061083282610839565b9050919050565b600073ffffffffffffffffffffffffffffffffffffffff82169050919050565b6000819050919050565b600061086e82610875565b9050919050565b600061088082610925565b9050919050565b6000819050919050565b600061089c82610859565b91506108a783610859565b9250826108b7576108b66108f1565b5b828206905092915050565b7f4e487b7100000000000000000000000000000000000000000000000000000000600052601160045260246000fd5b7f4e487b7100000000000000000000000000000000000000000000000000000000600052601260045260246000fd5b600080fd5b60008160601b9050919050565b7f4e756d6265723220696e76616c69642e00000000000000000000000000000000600082015250565b7f4e756d6265723120696e76616c69642e00000000000000000000000000000000600082015250565b7f506179206174206c6561737420302e3520724574682e00000000000000000000600082015250565b7f4e756d6265723320696e76616c69642e00000000000000000000000000000000600082015250565b6109df81610859565b81146109ea57600080fd5b5056fea2646970667358221220755a6347c89f7331ecf882990f137e34214de79adf467600d11a6ba6d72a24ad64736f6c63430008070033",
			"opcodes": "PUSH1 0x80 PUSH1 0x40 MSTORE CALLVALUE DUP1 ISZERO PUSH2 0x10 JUMPI PUSH1 0x0 DUP1 REVERT JUMPDEST POP PUSH2 0xA23 DUP1 PUSH2 0x20 PUSH1 0x0 CODECOPY PUSH1 0x0 RETURN INVALID PUSH1 0x80 PUSH1 0x40 MSTORE PUSH1 0x4 CALLDATASIZE LT PUSH2 0x34 JUMPI PUSH1 0x0 CALLDATALOAD PUSH1 0xE0 SHR DUP1 PUSH4 0x8BCA2B2F EQ PUSH2 0x39 JUMPI DUP1 PUSH4 0xB69EF8A8 EQ PUSH2 0x64 JUMPI DUP1 PUSH4 0xBCB71CF2 EQ PUSH2 0x8F JUMPI JUMPDEST PUSH1 0x0 DUP1 REVERT JUMPDEST CALLVALUE DUP1 ISZERO PUSH2 0x45 JUMPI PUSH1 0x0 DUP1 REVERT JUMPDEST POP PUSH2 0x4E PUSH2 0xAB JUMP JUMPDEST PUSH1 0x40 MLOAD PUSH2 0x5B SWAP2 SWAP1 PUSH2 0x774 JUMP JUMPDEST PUSH1 0x40 MLOAD DUP1 SWAP2 SUB SWAP1 RETURN JUMPDEST CALLVALUE DUP1 ISZERO PUSH2 0x70 JUMPI PUSH1 0x0 DUP1 REVERT JUMPDEST POP PUSH2 0x79 PUSH2 0xF8 JUMP JUMPDEST PUSH1 0x40 MLOAD PUSH2 0x86 SWAP2 SWAP1 PUSH2 0x774 JUMP JUMPDEST PUSH1 0x40 MLOAD DUP1 SWAP2 SUB SWAP1 RETURN JUMPDEST PUSH2 0xA9 PUSH1 0x4 DUP1 CALLDATASIZE SUB DUP2 ADD SWAP1 PUSH2 0xA4 SWAP2 SWAP1 PUSH2 0x59B JUMP JUMPDEST PUSH2 0x100 JUMP JUMPDEST STOP JUMPDEST PUSH1 0x0 PUSH1 0x1 PUSH1 0x14 TIMESTAMP DIFFICULTY CALLER PUSH1 0x40 MLOAD PUSH1 0x20 ADD PUSH2 0xC6 SWAP4 SWAP3 SWAP2 SWAP1 PUSH2 0x6B7 JUMP JUMPDEST PUSH1 0x40 MLOAD PUSH1 0x20 DUP2 DUP4 SUB SUB DUP2 MSTORE SWAP1 PUSH1 0x40 MSTORE DUP1 MLOAD SWAP1 PUSH1 0x20 ADD KECCAK256 PUSH1 0x0 SHR PUSH2 0xE9 SWAP2 SWAP1 PUSH2 0x891 JUMP JUMPDEST PUSH2 0xF3 SWAP2 SWAP1 PUSH2 0x7A0 JUMP JUMPDEST SWAP1 POP SWAP1 JUMP JUMPDEST PUSH1 0x0 SELFBALANCE SWAP1 POP SWAP1 JUMP JUMPDEST PUSH1 0x1 DUP4 LT ISZERO DUP1 ISZERO PUSH2 0x112 JUMPI POP PUSH1 0x14 DUP4 GT ISZERO JUMPDEST PUSH2 0x151 JUMPI PUSH1 0x40 MLOAD PUSH32 0x8C379A000000000000000000000000000000000000000000000000000000000 DUP2 MSTORE PUSH1 0x4 ADD PUSH2 0x148 SWAP1 PUSH2 0x714 JUMP JUMPDEST PUSH1 0x40 MLOAD DUP1 SWAP2 SUB SWAP1 REVERT JUMPDEST PUSH1 0x1 DUP3 LT ISZERO DUP1 ISZERO PUSH2 0x163 JUMPI POP PUSH1 0x14 DUP3 GT ISZERO JUMPDEST PUSH2 0x1A2 JUMPI PUSH1 0x40 MLOAD PUSH32 0x8C379A000000000000000000000000000000000000000000000000000000000 DUP2 MSTORE PUSH1 0x4 ADD PUSH2 0x199 SWAP1 PUSH2 0x6F4 JUMP JUMPDEST PUSH1 0x40 MLOAD DUP1 SWAP2 SUB SWAP1 REVERT JUMPDEST PUSH1 0x1 DUP2 LT ISZERO DUP1 ISZERO PUSH2 0x1B4 JUMPI POP PUSH1 0x14 DUP2 GT ISZERO JUMPDEST PUSH2 0x1F3 JUMPI PUSH1 0x40 MLOAD PUSH32 0x8C379A000000000000000000000000000000000000000000000000000000000 DUP2 MSTORE PUSH1 0x4 ADD PUSH2 0x1EA SWAP1 PUSH2 0x754 JUMP JUMPDEST PUSH1 0x40 MLOAD DUP1 SWAP2 SUB SWAP1 REVERT JUMPDEST PUSH8 0x6F05B59D3B20000 CALLVALUE LT ISZERO PUSH2 0x23E JUMPI PUSH1 0x40 MLOAD PUSH32 0x8C379A000000000000000000000000000000000000000000000000000000000 DUP2 MSTORE PUSH1 0x4 ADD PUSH2 0x235 SWAP1 PUSH2 0x734 JUMP JUMPDEST PUSH1 0x40 MLOAD DUP1 SWAP2 SUB SWAP1 REVERT JUMPDEST PUSH2 0x246 PUSH2 0xAB JUMP JUMPDEST DUP4 EQ ISZERO PUSH2 0x2A9 JUMPI ORIGIN PUSH20 0xFFFFFFFFFFFFFFFFFFFFFFFFFFFFFFFFFFFFFFFF AND PUSH2 0x8FC PUSH2 0x3E8 PUSH2 0x272 PUSH2 0xF8 JUMP JUMPDEST PUSH2 0x27C SWAP2 SWAP1 PUSH2 0x7F6 JUMP JUMPDEST SWAP1 DUP2 ISZERO MUL SWAP1 PUSH1 0x40 MLOAD PUSH1 0x0 PUSH1 0x40 MLOAD DUP1 DUP4 SUB DUP2 DUP6 DUP9 DUP9 CALL SWAP4 POP POP POP POP ISZERO DUP1 ISZERO PUSH2 0x2A7 JUMPI RETURNDATASIZE PUSH1 0x0 DUP1 RETURNDATACOPY RETURNDATASIZE PUSH1 0x0 REVERT JUMPDEST POP JUMPDEST PUSH2 0x2B1 PUSH2 0xAB JUMP JUMPDEST DUP3 EQ ISZERO PUSH2 0x314 JUMPI ORIGIN PUSH20 0xFFFFFFFFFFFFFFFFFFFFFFFFFFFFFFFFFFFFFFFF AND PUSH2 0x8FC PUSH2 0x3E8 PUSH2 0x2DD PUSH2 0xF8 JUMP JUMPDEST PUSH2 0x2E7 SWAP2 SWAP1 PUSH2 0x7F6 JUMP JUMPDEST SWAP1 DUP2 ISZERO MUL SWAP1 PUSH1 0x40 MLOAD PUSH1 0x0 PUSH1 0x40 MLOAD DUP1 DUP4 SUB DUP2 DUP6 DUP9 DUP9 CALL SWAP4 POP POP POP POP ISZERO DUP1 ISZERO PUSH2 0x312 JUMPI RETURNDATASIZE PUSH1 0x0 DUP1 RETURNDATACOPY RETURNDATASIZE PUSH1 0x0 REVERT JUMPDEST POP JUMPDEST PUSH2 0x31C PUSH2 0xAB JUMP JUMPDEST DUP2 EQ ISZERO PUSH2 0x37F JUMPI ORIGIN PUSH20 0xFFFFFFFFFFFFFFFFFFFFFFFFFFFFFFFFFFFFFFFF AND PUSH2 0x8FC PUSH2 0x3E8 PUSH2 0x348 PUSH2 0xF8 JUMP JUMPDEST PUSH2 0x352 SWAP2 SWAP1 PUSH2 0x7F6 JUMP JUMPDEST SWAP1 DUP2 ISZERO MUL SWAP1 PUSH1 0x40 MLOAD PUSH1 0x0 PUSH1 0x40 MLOAD DUP1 DUP4 SUB DUP2 DUP6 DUP9 DUP9 CALL SWAP4 POP POP POP POP ISZERO DUP1 ISZERO PUSH2 0x37D JUMPI RETURNDATASIZE PUSH1 0x0 DUP1 RETURNDATACOPY RETURNDATASIZE PUSH1 0x0 REVERT JUMPDEST POP JUMPDEST PUSH2 0x387 PUSH2 0xAB JUMP JUMPDEST DUP4 EQ DUP1 ISZERO PUSH2 0x39B JUMPI POP PUSH2 0x398 PUSH2 0xAB JUMP JUMPDEST DUP3 EQ JUMPDEST ISZERO PUSH2 0x3FB JUMPI ORIGIN PUSH20 0xFFFFFFFFFFFFFFFFFFFFFFFFFFFFFFFFFFFFFFFF AND PUSH2 0x8FC PUSH1 0x64 PUSH2 0x3C4 PUSH2 0xF8 JUMP JUMPDEST PUSH2 0x3CE SWAP2 SWAP1 PUSH2 0x7F6 JUMP JUMPDEST SWAP1 DUP2 ISZERO MUL SWAP1 PUSH1 0x40 MLOAD PUSH1 0x0 PUSH1 0x40 MLOAD DUP1 DUP4 SUB DUP2 DUP6 DUP9 DUP9 CALL SWAP4 POP POP POP POP ISZERO DUP1 ISZERO PUSH2 0x3F9 JUMPI RETURNDATASIZE PUSH1 0x0 DUP1 RETURNDATACOPY RETURNDATASIZE PUSH1 0x0 REVERT JUMPDEST POP JUMPDEST PUSH2 0x403 PUSH2 0xAB JUMP JUMPDEST DUP4 EQ DUP1 ISZERO PUSH2 0x417 JUMPI POP PUSH2 0x414 PUSH2 0xAB JUMP JUMPDEST DUP2 EQ JUMPDEST ISZERO PUSH2 0x477 JUMPI ORIGIN PUSH20 0xFFFFFFFFFFFFFFFFFFFFFFFFFFFFFFFFFFFFFFFF AND PUSH2 0x8FC PUSH1 0x64 PUSH2 0x440 PUSH2 0xF8 JUMP JUMPDEST PUSH2 0x44A SWAP2 SWAP1 PUSH2 0x7F6 JUMP JUMPDEST SWAP1 DUP2 ISZERO MUL SWAP1 PUSH1 0x40 MLOAD PUSH1 0x0 PUSH1 0x40 MLOAD DUP1 DUP4 SUB DUP2 DUP6 DUP9 DUP9 CALL SWAP4 POP POP POP POP ISZERO DUP1 ISZERO PUSH2 0x475 JUMPI RETURNDATASIZE PUSH1 0x0 DUP1 RETURNDATACOPY RETURNDATASIZE PUSH1 0x0 REVERT JUMPDEST POP JUMPDEST PUSH2 0x47F PUSH2 0xAB JUMP JUMPDEST DUP3 EQ DUP1 ISZERO PUSH2 0x493 JUMPI POP PUSH2 0x490 PUSH2 0xAB JUMP JUMPDEST DUP2 EQ JUMPDEST ISZERO PUSH2 0x4F3 JUMPI ORIGIN PUSH20 0xFFFFFFFFFFFFFFFFFFFFFFFFFFFFFFFFFFFFFFFF AND PUSH2 0x8FC PUSH1 0x64 PUSH2 0x4BC PUSH2 0xF8 JUMP JUMPDEST PUSH2 0x4C6 SWAP2 SWAP1 PUSH2 0x7F6 JUMP JUMPDEST SWAP1 DUP2 ISZERO MUL SWAP1 PUSH1 0x40 MLOAD PUSH1 0x0 PUSH1 0x40 MLOAD DUP1 DUP4 SUB DUP2 DUP6 DUP9 DUP9 CALL SWAP4 POP POP POP POP ISZERO DUP1 ISZERO PUSH2 0x4F1 JUMPI RETURNDATASIZE PUSH1 0x0 DUP1 RETURNDATACOPY RETURNDATASIZE PUSH1 0x0 REVERT JUMPDEST POP JUMPDEST PUSH2 0x4FB PUSH2 0xAB JUMP JUMPDEST DUP4 EQ DUP1 ISZERO PUSH2 0x50F JUMPI POP PUSH2 0x50C PUSH2 0xAB JUMP JUMPDEST DUP3 EQ JUMPDEST DUP1 ISZERO PUSH2 0x521 JUMPI POP PUSH2 0x51E PUSH2 0xAB JUMP JUMPDEST DUP2 EQ JUMPDEST ISZERO PUSH2 0x581 JUMPI ORIGIN PUSH20 0xFFFFFFFFFFFFFFFFFFFFFFFFFFFFFFFFFFFFFFFF AND PUSH2 0x8FC PUSH1 0x2 PUSH2 0x54A PUSH2 0xF8 JUMP JUMPDEST PUSH2 0x554 SWAP2 SWAP1 PUSH2 0x7F6 JUMP JUMPDEST SWAP1 DUP2 ISZERO MUL SWAP1 PUSH1 0x40 MLOAD PUSH1 0x0 PUSH1 0x40 MLOAD DUP1 DUP4 SUB DUP2 DUP6 DUP9 DUP9 CALL SWAP4 POP POP POP POP ISZERO DUP1 ISZERO PUSH2 0x57F JUMPI RETURNDATASIZE PUSH1 0x0 DUP1 RETURNDATACOPY RETURNDATASIZE PUSH1 0x0 REVERT JUMPDEST POP JUMPDEST POP POP POP JUMP JUMPDEST PUSH1 0x0 DUP2 CALLDATALOAD SWAP1 POP PUSH2 0x595 DUP2 PUSH2 0x9D6 JUMP JUMPDEST SWAP3 SWAP2 POP POP JUMP JUMPDEST PUSH1 0x0 DUP1 PUSH1 0x0 PUSH1 0x60 DUP5 DUP7 SUB SLT ISZERO PUSH2 0x5B4 JUMPI PUSH2 0x5B3 PUSH2 0x920 JUMP JUMPDEST JUMPDEST PUSH1 0x0 PUSH2 0x5C2 DUP7 DUP3 DUP8 ADD PUSH2 0x586 JUMP JUMPDEST SWAP4 POP POP PUSH1 0x20 PUSH2 0x5D3 DUP7 DUP3 DUP8 ADD PUSH2 0x586 JUMP JUMPDEST SWAP3 POP POP PUSH1 0x40 PUSH2 0x5E4 DUP7 DUP3 DUP8 ADD PUSH2 0x586 JUMP JUMPDEST SWAP2 POP POP SWAP3 POP SWAP3 POP SWAP3 JUMP JUMPDEST PUSH2 0x5FF PUSH2 0x5FA DUP3 PUSH2 0x827 JUMP JUMPDEST PUSH2 0x863 JUMP JUMPDEST DUP3 MSTORE POP POP JUMP JUMPDEST PUSH1 0x0 PUSH2 0x612 PUSH1 0x10 DUP4 PUSH2 0x78F JUMP JUMPDEST SWAP2 POP PUSH2 0x61D DUP3 PUSH2 0x932 JUMP JUMPDEST PUSH1 0x20 DUP3 ADD SWAP1 POP SWAP2 SWAP1 POP JUMP JUMPDEST PUSH1 0x0 PUSH2 0x635 PUSH1 0x10 DUP4 PUSH2 0x78F JUMP JUMPDEST SWAP2 POP PUSH2 0x640 DUP3 PUSH2 0x95B JUMP JUMPDEST PUSH1 0x20 DUP3 ADD SWAP1 POP SWAP2 SWAP1 POP JUMP JUMPDEST PUSH1 0x0 PUSH2 0x658 PUSH1 0x16 DUP4 PUSH2 0x78F JUMP JUMPDEST SWAP2 POP PUSH2 0x663 DUP3 PUSH2 0x984 JUMP JUMPDEST PUSH1 0x20 DUP3 ADD SWAP1 POP SWAP2 SWAP1 POP JUMP JUMPDEST PUSH1 0x0 PUSH2 0x67B PUSH1 0x10 DUP4 PUSH2 0x78F JUMP JUMPDEST SWAP2 POP PUSH2 0x686 DUP3 PUSH2 0x9AD JUMP JUMPDEST PUSH1 0x20 DUP3 ADD SWAP1 POP SWAP2 SWAP1 POP JUMP JUMPDEST PUSH2 0x69A DUP2 PUSH2 0x859 JUMP JUMPDEST DUP3 MSTORE POP POP JUMP JUMPDEST PUSH2 0x6B1 PUSH2 0x6AC DUP3 PUSH2 0x859 JUMP JUMPDEST PUSH2 0x887 JUMP JUMPDEST DUP3 MSTORE POP POP JUMP JUMPDEST PUSH1 0x0 PUSH2 0x6C3 DUP3 DUP7 PUSH2 0x6A0 JUMP JUMPDEST PUSH1 0x20 DUP3 ADD SWAP2 POP PUSH2 0x6D3 DUP3 DUP6 PUSH2 0x6A0 JUMP JUMPDEST PUSH1 0x20 DUP3 ADD SWAP2 POP PUSH2 0x6E3 DUP3 DUP5 PUSH2 0x5EE JUMP JUMPDEST PUSH1 0x14 DUP3 ADD SWAP2 POP DUP2 SWAP1 POP SWAP5 SWAP4 POP POP POP POP JUMP JUMPDEST PUSH1 0x0 PUSH1 0x20 DUP3 ADD SWAP1 POP DUP2 DUP2 SUB PUSH1 0x0 DUP4 ADD MSTORE PUSH2 0x70D DUP2 PUSH2 0x605 JUMP JUMPDEST SWAP1 POP SWAP2 SWAP1 POP JUMP JUMPDEST PUSH1 0x0 PUSH1 0x20 DUP3 ADD SWAP1 POP DUP2 DUP2 SUB PUSH1 0x0 DUP4 ADD MSTORE PUSH2 0x72D DUP2 PUSH2 0x628 JUMP JUMPDEST SWAP1 POP SWAP2 SWAP1 POP JUMP JUMPDEST PUSH1 0x0 PUSH1 0x20 DUP3 ADD SWAP1 POP DUP2 DUP2 SUB PUSH1 0x0 DUP4 ADD MSTORE PUSH2 0x74D DUP2 PUSH2 0x64B JUMP JUMPDEST SWAP1 POP SWAP2 SWAP1 POP JUMP JUMPDEST PUSH1 0x0 PUSH1 0x20 DUP3 ADD SWAP1 POP DUP2 DUP2 SUB PUSH1 0x0 DUP4 ADD MSTORE PUSH2 0x76D DUP2 PUSH2 0x66E JUMP JUMPDEST SWAP1 POP SWAP2 SWAP1 POP JUMP JUMPDEST PUSH1 0x0 PUSH1 0x20 DUP3 ADD SWAP1 POP PUSH2 0x789 PUSH1 0x0 DUP4 ADD DUP5 PUSH2 0x691 JUMP JUMPDEST SWAP3 SWAP2 POP POP JUMP JUMPDEST PUSH1 0x0 DUP3 DUP3 MSTORE PUSH1 0x20 DUP3 ADD SWAP1 POP SWAP3 SWAP2 POP POP JUMP JUMPDEST PUSH1 0x0 PUSH2 0x7AB DUP3 PUSH2 0x859 JUMP JUMPDEST SWAP2 POP PUSH2 0x7B6 DUP4 PUSH2 0x859 JUMP JUMPDEST SWAP3 POP DUP3 PUSH32 0xFFFFFFFFFFFFFFFFFFFFFFFFFFFFFFFFFFFFFFFFFFFFFFFFFFFFFFFFFFFFFFFF SUB DUP3 GT ISZERO PUSH2 0x7EB JUMPI PUSH2 0x7EA PUSH2 0x8C2 JUMP JUMPDEST JUMPDEST DUP3 DUP3 ADD SWAP1 POP SWAP3 SWAP2 POP POP JUMP JUMPDEST PUSH1 0x0 PUSH2 0x801 DUP3 PUSH2 0x859 JUMP JUMPDEST SWAP2 POP PUSH2 0x80C DUP4 PUSH2 0x859 JUMP JUMPDEST SWAP3 POP DUP3 PUSH2 0x81C JUMPI PUSH2 0x81B PUSH2 0x8F1 JUMP JUMPDEST JUMPDEST DUP3 DUP3 DIV SWAP1 POP SWAP3 SWAP2 POP POP JUMP JUMPDEST PUSH1 0x0 PUSH2 0x832 DUP3 PUSH2 0x839 JUMP JUMPDEST SWAP1 POP SWAP2 SWAP1 POP JUMP JUMPDEST PUSH1 0x0 PUSH20 0xFFFFFFFFFFFFFFFFFFFFFFFFFFFFFFFFFFFFFFFF DUP3 AND SWAP1 POP SWAP2 SWAP1 POP JUMP JUMPDEST PUSH1 0x0 DUP2 SWAP1 POP SWAP2 SWAP1 POP JUMP JUMPDEST PUSH1 0x0 PUSH2 0x86E DUP3 PUSH2 0x875 JUMP JUMPDEST SWAP1 POP SWAP2 SWAP1 POP JUMP JUMPDEST PUSH1 0x0 PUSH2 0x880 DUP3 PUSH2 0x925 JUMP JUMPDEST SWAP1 POP SWAP2 SWAP1 POP JUMP JUMPDEST PUSH1 0x0 DUP2 SWAP1 POP SWAP2 SWAP1 POP JUMP JUMPDEST PUSH1 0x0 PUSH2 0x89C DUP3 PUSH2 0x859 JUMP JUMPDEST SWAP2 POP PUSH2 0x8A7 DUP4 PUSH2 0x859 JUMP JUMPDEST SWAP3 POP DUP3 PUSH2 0x8B7 JUMPI PUSH2 0x8B6 PUSH2 0x8F1 JUMP JUMPDEST JUMPDEST DUP3 DUP3 MOD SWAP1 POP SWAP3 SWAP2 POP POP JUMP JUMPDEST PUSH32 0x4E487B7100000000000000000000000000000000000000000000000000000000 PUSH1 0x0 MSTORE PUSH1 0x11 PUSH1 0x4 MSTORE PUSH1 0x24 PUSH1 0x0 REVERT JUMPDEST PUSH32 0x4E487B7100000000000000000000000000000000000000000000000000000000 PUSH1 0x0 MSTORE PUSH1 0x12 PUSH1 0x4 MSTORE PUSH1 0x24 PUSH1 0x0 REVERT JUMPDEST PUSH1 0x0 DUP1 REVERT JUMPDEST PUSH1 0x0 DUP2 PUSH1 0x60 SHL SWAP1 POP SWAP2 SWAP1 POP JUMP JUMPDEST PUSH32 0x4E756D6265723220696E76616C69642E00000000000000000000000000000000 PUSH1 0x0 DUP3 ADD MSTORE POP JUMP JUMPDEST PUSH32 0x4E756D6265723120696E76616C69642E00000000000000000000000000000000 PUSH1 0x0 DUP3 ADD MSTORE POP JUMP JUMPDEST PUSH32 0x506179206174206C6561737420302E3520724574682E00000000000000000000 PUSH1 0x0 DUP3 ADD MSTORE POP JUMP JUMPDEST PUSH32 0x4E756D6265723320696E76616C69642E00000000000000000000000000000000 PUSH1 0x0 DUP3 ADD MSTORE POP JUMP JUMPDEST PUSH2 0x9DF DUP2 PUSH2 0x859 JUMP JUMPDEST DUP2 EQ PUSH2 0x9EA JUMPI PUSH1 0x0 DUP1 REVERT JUMPDEST POP JUMP INVALID LOG2 PUSH5 0x6970667358 0x22 SLT KECCAK256 PUSH22 0x5A6347C89F7331ECF882990F137E34214DE79ADF4676 STOP 0xD1 BYTE PUSH12 0xA6D72A24AD64736F6C634300 ADDMOD SMOD STOP CALLER "
		},
		"gasEstimates": {
			"creation": {
				"codeDepositCost": "519000",
				"executionCost": "556",
				"totalCost": "519556"
			},
			"external": {
				"balance()": "339",
				"onlinelotto_transaction(uint256,uint256,uint256)": "infinite",
				"randomLottoNumber()": "infinite"
			}
		},
		"methodIdentifiers": {
			"balance()": "b69ef8a8",
			"onlinelotto_transaction(uint256,uint256,uint256)": "bcb71cf2",
			"randomLottoNumber()": "8bca2b2f"
		}
	},
	"abi": [
		{
			"inputs": [],
			"name": "balance",
			"outputs": [
				{
					"internalType": "uint256",
					"name": "",
					"type": "uint256"
				}
			],
			"stateMutability": "view",
			"type": "function"
		},
		{
			"inputs": [
				{
					"internalType": "uint256",
					"name": "number1",
					"type": "uint256"
				},
				{
					"internalType": "uint256",
					"name": "number2",
					"type": "uint256"
				},
				{
					"internalType": "uint256",
					"name": "number3",
					"type": "uint256"
				}
			],
			"name": "onlinelotto_transaction",
			"outputs": [],
			"stateMutability": "payable",
			"type": "function"
		},
		{
			"inputs": [],
			"name": "randomLottoNumber",
			"outputs": [
				{
					"internalType": "uint256",
					"name": "",
					"type": "uint256"
				}
			],
			"stateMutability": "view",
			"type": "function"
		}
	]
}